:1000000014C037C02BC02AC029C028C027C026C0B2
:1000100025C024C023C022C021C020C01FC01EC0D4
:100020001DC01CC01BC01AC019C011241FBECFEDBB
:10003000CDBF10E0A0E6B0E0E0EBF0E002C005903C
:100040000D92A036B107D9F720E0A0E6B0E001C0DC
:100050001D92A136B207E1F71BD028C0D1CF78940A
:100060000895FDDF85B7826085BF8BB780648BBF45
:1000700008951F920F920FB60F9211248F9381E073
:10008000809360008F910F900FBE0F901F90189576
:10009000E8DF87B3846087BB809160008823E1F349
:1000A00086B3846086BB10926000F6CFF894FFCFD1
:00000001FF
