:1000000014C02CC02BC02AC029C028C027C026C0BD
:1000100025C024C023C022C021C020C01FC01EC0D4
:100020001DC01CC01BC01AC019C011241FBECFEDBB
:10003000CDBF10E0A0E6B0E0E6E9F0E002C0059038
:100040000D92A036B107D9F720E0A0E6B0E001C0DC
:100050001D92A036B207E1F702D01BC0D1CF87E6D0
:1000600090E00CD085E011D02FEF83ED90E321508C
:1000700080409040E1F700C00000F4CF92B989B908
:1000800088E18AB98EE083B908955D9BFECF8CB973
:060090000895F894FFCF73
:00000001FF
