:1000000014C02CC02BC02AC029C028C027C026C0BD
:1000100025C024C023C022C021C020C01FC01EC0D4
:100020001DC01CC01BC01AC019C011241FBECFEDBB
:10003000CDBF10E0A0E6B0E0ECE1F1E002C0059039
:100040000D92A237B107D9F720E0A2E7B0E001C0D6
:100050001D92A237B207E1F702D05EC0D1CF84E48F
:1000600090E033D022D0E091700081E08E0F809339
:100070007000F0E0E05AFF4F61E080810ED0809187
:10008000700069E03DD090937000EDCF82B388603E
:1000900082BB82B3877F82BB0895CF93C62F2BD0BC
:1000A0008C2F29D0F3DFCF91089581B3886081BB75
:1000B00082B3877F82BB61E08CE0EFDF6FEF89E086
:1000C000ECDF67E08BE0E9DF089512B819B821B3DF
:1000D000246021BB21B3226021BB21B32E7F21BB31
:1000E00023B1206C23B923B1287F23B928E12AB991
:1000F00092B989B908955D9BFECF8CB980E00895CF
:10010000991B79E004C0991F961708F0961B881F69
:0C0110007A95C9F780950895F894FFCF08
:10011C00000102030405060708090A0B0C0D0E0F5B
:02012C000100D0
:00000001FF
