:1000000014C037C02BC02AC029C028C027C026C0B2
:1000100025C024C023C022C021C020C01FC01EC0D4
:100020001DC01CC01BC01AC019C011241FBECFEDBB
:10003000CDBF10E0A0E6B0E0ECEBF0E002C0059030
:100040000D92A036B107D9F720E0A0E6B0E001C0DC
:100050001D92A136B207E1F720D02EC0D1CF7894FF
:100060000895FDDF85B7826085BF8BB780648BBF45
:1000700008951F920F920FB60F9211248F9381E073
:10008000809360008F910F900FBE0F901F90189576
:10009000F8948091600078940895E3DF87B38460DA
:1000A00087BBF894F5DF882329F086B3846086BB8C
:0C00B000109260007894F5CFF894FFCF18
:00000001FF
